{
  "_format": "hh-sol-artifact-1",
  "contractName": "MockUSDC",
  "sourceName": "contracts/mocks/MockUSDC.sol",
  "abi": [
    {
      "inputs": [],
      "stateMutability": "nonpayable",
      "type": "constructor"
    },
    {
      "inputs": [
        {
          "internalType": "address",
          "name": "spender",
          "type": "address"
        },
        {
          "internalType": "uint256",
          "name": "allowance",
          "type": "uint256"
        },
        {
          "internalType": "uint256",
          "name": "needed",
          "type": "uint256"
        }
      ],
      "name": "ERC20InsufficientAllowance",
      "type": "error"
    },
    {
      "inputs": [
        {
          "internalType": "address",
          "name": "sender",
          "type": "address"
        },
        {
          "internalType": "uint256",
          "name": "balance",
          "type": "uint256"
        },
        {
          "internalType": "uint256",
          "name": "needed",
          "type": "uint256"
        }
      ],
      "name": "ERC20InsufficientBalance",
      "type": "error"
    },
    {
      "inputs": [
        {
          "internalType": "address",
          "name": "approver",
          "type": "address"
        }
      ],
      "name": "ERC20InvalidApprover",
      "type": "error"
    },
    {
      "inputs": [
        {
          "internalType": "address",
          "name": "receiver",
          "type": "address"
        }
      ],
      "name": "ERC20InvalidReceiver",
      "type": "error"
    },
    {
      "inputs": [
        {
          "internalType": "address",
          "name": "sender",
          "type": "address"
        }
      ],
      "name": "ERC20InvalidSender",
      "type": "error"
    },
    {
      "inputs": [
        {
          "internalType": "address",
          "name": "spender",
          "type": "address"
        }
      ],
      "name": "ERC20InvalidSpender",
      "type": "error"
    },
    {
      "anonymous": false,
      "inputs": [
        {
          "indexed": true,
          "internalType": "address",
          "name": "owner",
          "type": "address"
        },
        {
          "indexed": true,
          "internalType": "address",
          "name": "spender",
          "type": "address"
        },
        {
          "indexed": false,
          "internalType": "uint256",
          "name": "value",
          "type": "uint256"
        }
      ],
      "name": "Approval",
      "type": "event"
    },
    {
      "anonymous": false,
      "inputs": [
        {
          "indexed": true,
          "internalType": "address",
          "name": "from",
          "type": "address"
        },
        {
          "indexed": true,
          "internalType": "address",
          "name": "to",
          "type": "address"
        },
        {
          "indexed": false,
          "internalType": "uint256",
          "name": "value",
          "type": "uint256"
        }
      ],
      "name": "Transfer",
      "type": "event"
    },
    {
      "inputs": [
        {
          "internalType": "address",
          "name": "owner",
          "type": "address"
        },
        {
          "internalType": "address",
          "name": "spender",
          "type": "address"
        }
      ],
      "name": "allowance",
      "outputs": [
        {
          "internalType": "uint256",
          "name": "",
          "type": "uint256"
        }
      ],
      "stateMutability": "view",
      "type": "function"
    },
    {
      "inputs": [
        {
          "internalType": "address",
          "name": "spender",
          "type": "address"
        },
        {
          "internalType": "uint256",
          "name": "value",
          "type": "uint256"
        }
      ],
      "name": "approve",
      "outputs": [
        {
          "internalType": "bool",
          "name": "",
          "type": "bool"
        }
      ],
      "stateMutability": "nonpayable",
      "type": "function"
    },
    {
      "inputs": [
        {
          "internalType": "address",
          "name": "account",
          "type": "address"
        }
      ],
      "name": "balanceOf",
      "outputs": [
        {
          "internalType": "uint256",
          "name": "",
          "type": "uint256"
        }
      ],
      "stateMutability": "view",
      "type": "function"
    },
    {
      "inputs": [],
      "name": "decimals",
      "outputs": [
        {
          "internalType": "uint8",
          "name": "",
          "type": "uint8"
        }
      ],
      "stateMutability": "pure",
      "type": "function"
    },
    {
      "inputs": [
        {
          "internalType": "address",
          "name": "to",
          "type": "address"
        },
        {
          "internalType": "uint256",
          "name": "amount",
          "type": "uint256"
        }
      ],
      "name": "mint",
      "outputs": [],
      "stateMutability": "nonpayable",
      "type": "function"
    },
    {
      "inputs": [],
      "name": "name",
      "outputs": [
        {
          "internalType": "string",
          "name": "",
          "type": "string"
        }
      ],
      "stateMutability": "view",
      "type": "function"
    },
    {
      "inputs": [
        {
          "internalType": "address",
          "name": "owner",
          "type": "address"
        },
        {
          "internalType": "address",
          "name": "spender",
          "type": "address"
        },
        {
          "internalType": "uint256",
          "name": "value",
          "type": "uint256"
        },
        {
          "internalType": "uint256",
          "name": "",
          "type": "uint256"
        },
        {
          "internalType": "uint8",
          "name": "",
          "type": "uint8"
        },
        {
          "internalType": "bytes32",
          "name": "",
          "type": "bytes32"
        },
        {
          "internalType": "bytes32",
          "name": "",
          "type": "bytes32"
        }
      ],
      "name": "permit",
      "outputs": [],
      "stateMutability": "nonpayable",
      "type": "function"
    },
    {
      "inputs": [],
      "name": "symbol",
      "outputs": [
        {
          "internalType": "string",
          "name": "",
          "type": "string"
        }
      ],
      "stateMutability": "view",
      "type": "function"
    },
    {
      "inputs": [],
      "name": "totalSupply",
      "outputs": [
        {
          "internalType": "uint256",
          "name": "",
          "type": "uint256"
        }
      ],
      "stateMutability": "view",
      "type": "function"
    },
    {
      "inputs": [
        {
          "internalType": "address",
          "name": "to",
          "type": "address"
        },
        {
          "internalType": "uint256",
          "name": "value",
          "type": "uint256"
        }
      ],
      "name": "transfer",
      "outputs": [
        {
          "internalType": "bool",
          "name": "",
          "type": "bool"
        }
      ],
      "stateMutability": "nonpayable",
      "type": "function"
    },
    {
      "inputs": [
        {
          "internalType": "address",
          "name": "from",
          "type": "address"
        },
        {
          "internalType": "address",
          "name": "to",
          "type": "address"
        },
        {
          "internalType": "uint256",
          "name": "value",
          "type": "uint256"
        }
      ],
      "name": "transferFrom",
      "outputs": [
        {
          "internalType": "bool",
          "name": "",
          "type": "bool"
        }
      ],
      "stateMutability": "nonpayable",
      "type": "function"
    }
  ],
  "bytecode": "0x608060405234801561001057600080fd5b50604051806040016040528060088152602001672aa9a21021b7b4b760c11b815250604051806040016040528060048152602001635553444360e01b815250816003908161005e9190610112565b50600461006b8282610112565b5050506101d1565b634e487b7160e01b600052604160045260246000fd5b600181811c9082168061009d57607f821691505b6020821081036100bd57634e487b7160e01b600052602260045260246000fd5b50919050565b601f82111561010d57600081815260208120601f850160051c810160208610156100ea5750805b601f850160051c820191505b81811015610109578281556001016100f6565b5050505b505050565b81516001600160401b0381111561012b5761012b610073565b61013f816101398454610089565b846100c3565b602080601f831160018114610174576000841561015c5750858301515b600019600386901b1c1916600185901b178555610109565b600085815260208120601f198616915b828110156101a357888601518255948401946001909101908401610184565b50858210156101c15787850151600019600388901b60f8161c191681555b5050505050600190811b01905550565b61082a806101e06000396000f3fe608060405234801561001057600080fd5b50600436106100a95760003560e01c806340c10f191161007157806340c10f191461012357806370a082311461013857806395d89b4114610161578063a9059cbb14610169578063d505accf1461017c578063dd62ed3e1461018f57600080fd5b806306fdde03146100ae578063095ea7b3146100cc57806318160ddd146100ef57806323b872dd14610101578063313ce56714610114575b600080fd5b6100b66101c8565b6040516100c39190610601565b60405180910390f35b6100df6100da36600461066b565b61025a565b60405190151581526020016100c3565b6002545b6040519081526020016100c3565b6100df61010f366004610695565b610274565b604051600681526020016100c3565b61013661013136600461066b565b610298565b005b6100f36101463660046106d1565b6001600160a01b031660009081526020819052604090205490565b6100b66102a6565b6100df61017736600461066b565b6102b5565b61013661018a3660046106f3565b6102c3565b6100f361019d366004610766565b6001600160a01b03918216600090815260016020908152604080832093909416825291909152205490565b6060600380546101d790610799565b80601f016020809104026020016040519081016040528092919081815260200182805461020390610799565b80156102505780601f1061022557610100808354040283529160200191610250565b820191906000526020600020905b81548152906001019060200180831161023357829003601f168201915b5050505050905090565b6000336102688185856102d7565b60019150505b92915050565b6000336102828582856102e9565b61028d85858561036d565b506001949350505050565b6102a282826103cc565b5050565b6060600480546101d790610799565b60003361026881858561036d565b6102ce8787876102d7565b50505050505050565b6102e48383836001610402565b505050565b6001600160a01b03838116600090815260016020908152604080832093861683529290522054600019811015610367578181101561035857604051637dc7a0d960e11b81526001600160a01b038416600482015260248101829052604481018390526064015b60405180910390fd5b61036784848484036000610402565b50505050565b6001600160a01b03831661039757604051634b637e8f60e11b81526000600482015260240161034f565b6001600160a01b0382166103c15760405163ec442f0560e01b81526000600482015260240161034f565b6102e48383836104d7565b6001600160a01b0382166103f65760405163ec442f0560e01b81526000600482015260240161034f565b6102a2600083836104d7565b6001600160a01b03841661042c5760405163e602df0560e01b81526000600482015260240161034f565b6001600160a01b03831661045657604051634a1406b160e11b81526000600482015260240161034f565b6001600160a01b038085166000908152600160209081526040808320938716835292905220829055801561036757826001600160a01b0316846001600160a01b03167f8c5be1e5ebec7d5bd14f71427d1e84f3dd0314c0f7b2291e5b200ac8c7c3b925846040516104c991815260200190565b60405180910390a350505050565b6001600160a01b0383166105025780600260008282546104f791906107d3565b909155506105749050565b6001600160a01b038316600090815260208190526040902054818110156105555760405163391434e360e21b81526001600160a01b0385166004820152602481018290526044810183905260640161034f565b6001600160a01b03841660009081526020819052604090209082900390555b6001600160a01b038216610590576002805482900390556105af565b6001600160a01b03821660009081526020819052604090208054820190555b816001600160a01b0316836001600160a01b03167fddf252ad1be2c89b69c2b068fc378daa952ba7f163c4a11628f55a4df523b3ef836040516105f491815260200190565b60405180910390a3505050565b600060208083528351808285015260005b8181101561062e57858101830151858201604001528201610612565b506000604082860101526040601f19601f8301168501019250505092915050565b80356001600160a01b038116811461066657600080fd5b919050565b6000806040838503121561067e57600080fd5b6106878361064f565b946020939093013593505050565b6000806000606084860312156106aa57600080fd5b6106b38461064f565b92506106c16020850161064f565b9150604084013590509250925092565b6000602082840312156106e357600080fd5b6106ec8261064f565b9392505050565b600080600080600080600060e0888a03121561070e57600080fd5b6107178861064f565b96506107256020890161064f565b95506040880135945060608801359350608088013560ff8116811461074957600080fd5b9699959850939692959460a0840135945060c09093013592915050565b6000806040838503121561077957600080fd5b6107828361064f565b91506107906020840161064f565b90509250929050565b600181811c908216806107ad57607f821691505b6020821081036107cd57634e487b7160e01b600052602260045260246000fd5b50919050565b8082018082111561026e57634e487b7160e01b600052601160045260246000fdfea2646970667358221220811485508171a3556f6d46f2e3c55b1238a22e39cdd7e289e55f053cf3f423fd64736f6c63430008140033",
  "linkReferences": {},
  "deployedLinkReferences": {}
}