{"contracts/CoordinationCredits.sol":{"CoordinationCredits":{"abi":[{"inputs":[{"internalType":"address","name":"_canonical8004","type":"address"},{"internalType":"address","name":"_usdc","type":"address"},{"internalType":"address","name":"_registry","type":"address"},{"internalType":"address","name":"_gameAnchor","type":"address"},{"internalType":"address","name":"_treasury","type":"address"},{"internalType":"address","name":"_vault","type":"address"},{"internalType":"address","name":"_admin","type":"address"}],"stateMutability":"nonpayable","type":"constructor"},{"inputs":[],"name":"BurnDelayTooLong","type":"error"},{"inputs":[],"name":"BurnNotReady","type":"error"},{"inputs":[],"name":"InsufficientBalance","type":"error"},{"inputs":[],"name":"LengthMismatch","type":"error"},{"inputs":[],"name":"NoPendingBurn","type":"error"},{"inputs":[],"name":"NonTransferable","type":"error"},{"inputs":[],"name":"NotAdmin","type":"error"},{"inputs":[],"name":"NotAgentOwner","type":"error"},{"inputs":[],"name":"NotGameAnchor","type":"error"},{"inputs":[],"name":"NotRegistered","type":"error"},{"inputs":[],"name":"NotRegistry","type":"error"},{"inputs":[],"name":"ZeroSumViolation","type":"error"},{"anonymous":false,"inputs":[{"indexed":true,"internalType":"uint256","name":"agentId","type":"uint256"}],"name":"BurnCancelled","type":"event"},{"anonymous":false,"inputs":[{"indexed":false,"internalType":"uint256","name":"newDelay","type":"uint256"}],"name":"BurnDelayUpdated","type":"event"},{"anonymous":false,"inputs":[{"indexed":true,"internalType":"uint256","name":"agentId","type":"uint256"},{"indexed":false,"internalType":"uint256","name":"credits","type":"uint256"},{"indexed":false,"internalType":"uint256","name":"usdcAmount","type":"uint256"}],"name":"BurnExecuted","type":"event"},{"anonymous":false,"inputs":[{"indexed":true,"internalType":"uint256","name":"agentId","type":"uint256"},{"indexed":false,"internalType":"uint256","name":"amount","type":"uint256"},{"indexed":false,"internalType":"uint256","name":"executeAfter","type":"uint256"}],"name":"BurnRequested","type":"event"},{"anonymous":false,"inputs":[{"indexed":true,"internalType":"uint256","name":"agentId","type":"uint256"},{"indexed":false,"internalType":"uint256","name":"credits","type":"uint256"}],"name":"CreditsMinted","type":"event"},{"anonymous":false,"inputs":[{"indexed":false,"internalType":"uint256[]","name":"agentIds","type":"uint256[]"},{"indexed":false,"internalType":"int256[]","name":"deltas","type":"int256[]"}],"name":"CreditsSettled","type":"event"},{"inputs":[],"name":"admin","outputs":[{"internalType":"address","name":"","type":"address"}],"stateMutability":"view","type":"function"},{"inputs":[{"internalType":"uint256","name":"","type":"uint256"}],"name":"balances","outputs":[{"internalType":"uint256","name":"","type":"uint256"}],"stateMutability":"view","type":"function"},{"inputs":[],"name":"burnDelay","outputs":[{"internalType":"uint256","name":"","type":"uint256"}],"stateMutability":"view","type":"function"},{"inputs":[{"internalType":"uint256","name":"agentId","type":"uint256"}],"name":"cancelBurn","outputs":[],"stateMutability":"nonpayable","type":"function"},{"inputs":[],"name":"canonical8004","outputs":[{"internalType":"contract IERC8004","name":"","type":"address"}],"stateMutability":"view","type":"function"},{"inputs":[{"internalType":"uint256","name":"agentId","type":"uint256"}],"name":"executeBurn","outputs":[],"stateMutability":"nonpayable","type":"function"},{"inputs":[],"name":"gameAnchor","outputs":[{"internalType":"address","name":"","type":"address"}],"stateMutability":"view","type":"function"},{"inputs":[{"internalType":"uint256","name":"agentId","type":"uint256"},{"internalType":"uint256","name":"usdcAmount","type":"uint256"}],"name":"mint","outputs":[],"stateMutability":"nonpayable","type":"function"},{"inputs":[{"internalType":"uint256","name":"agentId","type":"uint256"},{"internalType":"uint256","name":"usdcAmount","type":"uint256"}],"name":"mintFor","outputs":[],"stateMutability":"nonpayable","type":"function"},{"inputs":[{"internalType":"uint256","name":"","type":"uint256"}],"name":"pendingBurns","outputs":[{"internalType":"uint256","name":"amount","type":"uint256"},{"internalType":"uint256","name":"executeAfter","type":"uint256"}],"stateMutability":"view","type":"function"},{"inputs":[],"name":"registry","outputs":[{"internalType":"address","name":"","type":"address"}],"stateMutability":"view","type":"function"},{"inputs":[{"internalType":"uint256","name":"agentId","type":"uint256"},{"internalType":"uint256","name":"amount","type":"uint256"}],"name":"requestBurn","outputs":[],"stateMutability":"nonpayable","type":"function"},{"inputs":[{"internalType":"uint256","name":"newDelay","type":"uint256"}],"name":"setBurnDelay","outputs":[],"stateMutability":"nonpayable","type":"function"},{"inputs":[{"internalType":"uint256[]","name":"agentIds","type":"uint256[]"},{"internalType":"int256[]","name":"deltas","type":"int256[]"}],"name":"settleDeltas","outputs":[],"stateMutability":"nonpayable","type":"function"},{"inputs":[{"internalType":"address","name":"","type":"address"},{"internalType":"uint256","name":"","type":"uint256"}],"name":"transfer","outputs":[{"internalType":"bool","name":"","type":"bool"}],"stateMutability":"pure","type":"function"},{"inputs":[{"internalType":"address","name":"","type":"address"},{"internalType":"address","name":"","type":"address"},{"internalType":"uint256","name":"","type":"uint256"}],"name":"transferFrom","outputs":[{"internalType":"bool","name":"","type":"bool"}],"stateMutability":"pure","type":"function"},{"inputs":[],"name":"treasury","outputs":[{"internalType":"address","name":"","type":"address"}],"stateMutability":"view","type":"function"},{"inputs":[],"name":"usdc","outputs":[{"internalType":"contract IUSDC","name":"","type":"address"}],"stateMutability":"view","type":"function"},{"inputs":[],"name":"vault","outputs":[{"internalType":"address","name":"","type":"address"}],"stateMutability":"view","type":"function"}],"evm":{"bytecode":{"linkReferences":{},"object":"610140604052610e106003553480156200001857600080fd5b5060405162001360380380620013608339810160408190526200003b916200009f565b6001600160a01b0396871660805294861660a05292851660c05290841660e052831661010052821661012052600080546001600160a01b0319169190921617905562000134565b80516001600160a01b03811681146200009a57600080fd5b919050565b600080600080600080600060e0888a031215620000bb57600080fd5b620000c68862000082565b9650620000d66020890162000082565b9550620000e66040890162000082565b9450620000f66060890162000082565b9350620001066080890162000082565b92506200011660a0890162000082565b91506200012660c0890162000082565b905092959891949750929550565b60805160a05160c05160e051610100516101205161118f620001d160003960008181610349015281816104660152610d1f0152600081816102710152610c5801526000818161012b015261088201526000818161029801526106a30152600081816101e00152818161049b01528181610c870152610d510152600081816102e0015281816105f5015281816107280152610b19015261118f6000f3fe608060405234801561001057600080fd5b50600436106101215760003560e01c806361d027b3116100ad578063c4261eb011610071578063c4261eb014610302578063e3f4ce5514610315578063e91983c914610328578063f851a44014610331578063fbfa77cf1461034457600080fd5b806361d027b31461026c5780637b10399914610293578063958d12ed146102ba578063a9059cbb146102cd578063bf29d501146102db57600080fd5b80631e14d30f116100f45780631e14d30f146101a557806323b872dd146101b85780633e413bee146101db5780634903b0d1146102025780634ac647391461023057600080fd5b8063022a255c1461012657806315dec3cf1461016a578063192468cf1461017f5780631b2ef1ca14610192575b600080fd5b61014d7f000000000000000000000000000000000000000000000000000000000000000081565b6040516001600160a01b0390911681526020015b60405180910390f35b61017d610178366004610e35565b61036b565b005b61017d61018d366004610e35565b61054b565b61017d6101a0366004610e4e565b6105d5565b61017d6101b3366004610e4e565b610698565b6101cb6101c6366004610e88565b6106ed565b6040519015158152602001610161565b61014d7f000000000000000000000000000000000000000000000000000000000000000081565b610222610210366004610e35565b60016020526000908152604090205481565b604051908152602001610161565b61025761023e366004610e35565b6002602052600090815260409020805460019091015482565b60408051928352602083019190915201610161565b61014d7f000000000000000000000000000000000000000000000000000000000000000081565b61014d7f000000000000000000000000000000000000000000000000000000000000000081565b61017d6102c8366004610e4e565b610708565b6101cb6101c6366004610ec9565b61014d7f000000000000000000000000000000000000000000000000000000000000000081565b61017d610310366004610f41565b610877565b61017d610323366004610e35565b610af9565b61022260035481565b60005461014d906001600160a01b031681565b61014d7f000000000000000000000000000000000000000000000000000000000000000081565b6000818152600260209081526040808320815180830190925280548083526001909101549282019290925291036103b5576040516302bb565960e31b815260040160405180910390fd5b80602001514210156103da5760405163e7bf6ec160e01b815260040160405180910390fd5b805160008381526001602052604090205481111561040357506000828152600160205260409020545b6000838152600260209081526040808320838155600190810184905590915281208054839290610434908490610fc3565b9091555060009050610447606483610fdc565b9050801561050a576040516323b872dd60e01b81526001600160a01b037f000000000000000000000000000000000000000000000000000000000000000081166004830152336024830152604482018390527f000000000000000000000000000000000000000000000000000000000000000016906323b872dd906064016020604051808303816000875af11580156104e4573d6000803e3d6000fd5b505050506040513d601f19601f820116820180604052508101906105089190610ffe565b505b604080518381526020810183905285917f783e94f010bc7ce1bb1c87194a287f631a57ac415c2b3a09607225bc773c0288910160405180910390a250505050565b6000546001600160a01b0316331461057657604051637bfa4b9f60e01b815260040160405180910390fd5b6201518081111561059a5760405163086586a360e11b815260040160405180910390fd5b60038190556040518181527f6705fe8655f99b3335cec249f61897328be414a3060ec988908cd5e4eccd67c29060200160405180910390a150565b6040516331a9108f60e11b81526004810183905233906001600160a01b037f00000000000000000000000000000000000000000000000000000000000000001690636352211e90602401602060405180830381865afa15801561063c573d6000803e3d6000fd5b505050506040513d601f19601f820116820180604052508101906106609190611027565b6001600160a01b03161461068757604051630e41dcbf60e21b815260040160405180910390fd5b61069482826103e8610c1a565b5050565b336001600160a01b037f000000000000000000000000000000000000000000000000000000000000000016146106e157604051633217675b60e21b815260040160405180910390fd5b61069482826000610c1a565b6000604051639cbe235760e01b815260040160405180910390fd5b6040516331a9108f60e11b81526004810183905233906001600160a01b037f00000000000000000000000000000000000000000000000000000000000000001690636352211e90602401602060405180830381865afa15801561076f573d6000803e3d6000fd5b505050506040513d601f19601f820116820180604052508101906107939190611027565b6001600160a01b0316146107ba57604051630e41dcbf60e21b815260040160405180910390fd5b6000828152600160205260409020548111156107e957604051631e9acf1760e31b815260040160405180910390fd5b6040518060400160405280828152602001600354426108089190611044565b905260008381526002602090815260409091208251815591015160019091015560035482907f0fe0745d0e1f974939364d92b447107024ce1cde89f062581497c753d2d653c690839061085b9042611044565b6040805192835260208301919091520160405180910390a25050565b336001600160a01b037f000000000000000000000000000000000000000000000000000000000000000016146108c0576040516354cb851560e01b815260040160405180910390fd5b8281146108e3576040516001621398b960e31b0319815260040160405180910390fd5b6000805b828110156109275783838281811061090157610901611057565b9050602002013582610913919061106d565b91508061091f81611095565b9150506108e7565b50801561094757604051635404d80f60e11b815260040160405180910390fd5b60005b84811015610ab457600084848381811061096657610966611057565b90506020020135126109d05783838281811061098457610984611057565b90506020020135600160008888858181106109a1576109a1611057565b90506020020135815260200190815260200160002060008282546109c59190611044565b90915550610aa29050565b60008484838181106109e4576109e4611057565b905060200201356109f4906110ae565b90508060016000898986818110610a0d57610a0d611057565b905060200201358152602001908152602001600020541015610a5f57600060016000898986818110610a4157610a41611057565b90506020020135815260200190815260200160002081905550610aa0565b8060016000898986818110610a7657610a76611057565b9050602002013581526020019081526020016000206000828254610a9a9190610fc3565b90915550505b505b80610aac81611095565b91505061094a565b507ff6b31a7725cebf7ac016964093222cee306f2b15276769898c99385987dd14d485858585604051610aea94939291906110ca565b60405180910390a15050505050565b6040516331a9108f60e11b81526004810182905233906001600160a01b037f00000000000000000000000000000000000000000000000000000000000000001690636352211e90602401602060405180830381865afa158015610b60573d6000803e3d6000fd5b505050506040513d601f19601f82011682018060405250810190610b849190611027565b6001600160a01b031614610bab57604051630e41dcbf60e21b815260040160405180910390fd5b6000818152600260205260408120549003610bd9576040516302bb565960e31b815260040160405180910390fd5b6000818152600260205260408082208281556001018290555182917fe9ed7bde96cee51d7ff139ece9ea942fa728364c0cc8454774688b2103ceb7d791a250565b6000612710610c298385611142565b610c339190610fdc565b90508015610cf6576040516323b872dd60e01b81523360048201526001600160a01b037f000000000000000000000000000000000000000000000000000000000000000081166024830152604482018390527f000000000000000000000000000000000000000000000000000000000000000016906323b872dd906064016020604051808303816000875af1158015610cd0573d6000803e3d6000fd5b505050506040513d601f19601f82011682018060405250810190610cf49190610ffe565b505b6000610d028285610fc3565b6040516323b872dd60e01b81523360048201526001600160a01b037f000000000000000000000000000000000000000000000000000000000000000081166024830152604482018390529192507f0000000000000000000000000000000000000000000000000000000000000000909116906323b872dd906064016020604051808303816000875af1158015610d9c573d6000803e3d6000fd5b505050506040513d601f19601f82011682018060405250810190610dc09190610ffe565b506000610dce826064611142565b905080600160008881526020019081526020016000206000828254610df39190611044565b909155505060405181815286907f83a581b548e565c38d88b98680dc3b5e20cbdaae97a0b0c1ecf6d500dbb13bff9060200160405180910390a2505050505050565b600060208284031215610e4757600080fd5b5035919050565b60008060408385031215610e6157600080fd5b50508035926020909101359150565b6001600160a01b0381168114610e8557600080fd5b50565b600080600060608486031215610e9d57600080fd5b8335610ea881610e70565b92506020840135610eb881610e70565b929592945050506040919091013590565b60008060408385031215610edc57600080fd5b8235610ee781610e70565b946020939093013593505050565b60008083601f840112610f0757600080fd5b50813567ffffffffffffffff811115610f1f57600080fd5b6020830191508360208260051b8501011115610f3a57600080fd5b9250929050565b60008060008060408587031215610f5757600080fd5b843567ffffffffffffffff80821115610f6f57600080fd5b610f7b88838901610ef5565b90965094506020870135915080821115610f9457600080fd5b50610fa187828801610ef5565b95989497509550505050565b634e487b7160e01b600052601160045260246000fd5b81810381811115610fd657610fd6610fad565b92915050565b600082610ff957634e487b7160e01b600052601260045260246000fd5b500490565b60006020828403121561101057600080fd5b8151801515811461102057600080fd5b9392505050565b60006020828403121561103957600080fd5b815161102081610e70565b80820180821115610fd657610fd6610fad565b634e487b7160e01b600052603260045260246000fd5b808201828112600083128015821682158216171561108d5761108d610fad565b505092915050565b6000600182016110a7576110a7610fad565b5060010190565b6000600160ff1b82016110c3576110c3610fad565b5060000390565b6040808252810184905260006001600160fb1b038511156110ea57600080fd5b8460051b808760608501376060908301838103820160208086019190915291810185905285916000916080015b86831015611135578335815292810192600192909201918101611117565b9998505050505050505050565b8082028115828204841417610fd657610fd6610fad56fea26469706673582212205c9a292ae0829d5ecdf93c0579003f64f4639b01e853e77a5f4b7f6478721edc64736f6c63430008140033","opcodes":"PUSH2 0x140 PUSH1 0x40 MSTORE PUSH2 0xE10 PUSH1 0x3 SSTORE CALLVALUE DUP1 ISZERO PUSH3 0x18 JUMPI PUSH1 0x0 DUP1 REVERT JUMPDEST POP PUSH1 0x40 MLOAD PUSH3 0x1360 CODESIZE SUB DUP1 PUSH3 0x1360 DUP4 CODECOPY DUP2 ADD PUSH1 0x40 DUP2 SWAP1 MSTORE PUSH3 0x3B SWAP2 PUSH3 0x9F JUMP JUMPDEST PUSH1 0x1 PUSH1 0x1 PUSH1 0xA0 SHL SUB SWAP7 DUP8 AND PUSH1 0x80 MSTORE SWAP5 DUP7 AND PUSH1 0xA0 MSTORE SWAP3 DUP6 AND PUSH1 0xC0 MSTORE SWAP1 DUP5 AND PUSH1 0xE0 MSTORE DUP4 AND PUSH2 0x100 MSTORE DUP3 AND PUSH2 0x120 MSTORE PUSH1 0x0 DUP1 SLOAD PUSH1 0x1 PUSH1 0x1 PUSH1 0xA0 SHL SUB NOT AND SWAP2 SWAP1 SWAP3 AND OR SWAP1 SSTORE PUSH3 0x134 JUMP JUMPDEST DUP1 MLOAD PUSH1 0x1 PUSH1 0x1 PUSH1 0xA0 SHL SUB DUP2 AND DUP2 EQ PUSH3 0x9A JUMPI PUSH1 0x0 DUP1 REVERT JUMPDEST SWAP2 SWAP1 POP JUMP JUMPDEST PUSH1 0x0 DUP1 PUSH1 0x0 DUP1 PUSH1 0x0 DUP1 PUSH1 0x0 PUSH1 0xE0 DUP9 DUP11 SUB SLT ISZERO PUSH3 0xBB JUMPI PUSH1 0x0 DUP1 REVERT JUMPDEST PUSH3 0xC6 DUP9 PUSH3 0x82 JUMP JUMPDEST SWAP7 POP PUSH3 0xD6 PUSH1 0x20 DUP10 ADD PUSH3 0x82 JUMP JUMPDEST SWAP6 POP PUSH3 0xE6 PUSH1 0x40 DUP10 ADD PUSH3 0x82 JUMP JUMPDEST SWAP5 POP PUSH3 0xF6 PUSH1 0x60 DUP10 ADD PUSH3 0x82 JUMP JUMPDEST SWAP4 POP PUSH3 0x106 PUSH1 0x80 DUP10 ADD PUSH3 0x82 JUMP JUMPDEST SWAP3 POP PUSH3 0x116 PUSH1 0xA0 DUP10 ADD PUSH3 0x82 JUMP JUMPDEST SWAP2 POP PUSH3 0x126 PUSH1 0xC0 DUP10 ADD PUSH3 0x82 JUMP JUMPDEST SWAP1 POP SWAP3 SWAP6 SWAP9 SWAP2 SWAP5 SWAP8 POP SWAP3 SWAP6 POP JUMP JUMPDEST PUSH1 0x80 MLOAD PUSH1 0xA0 MLOAD PUSH1 0xC0 MLOAD PUSH1 0xE0 MLOAD PUSH2 0x100 MLOAD PUSH2 0x120 MLOAD PUSH2 0x118F PUSH3 0x1D1 PUSH1 0x0 CODECOPY PUSH1 0x0 DUP2 DUP2 PUSH2 0x349 ADD MSTORE DUP2 DUP2 PUSH2 0x466 ADD MSTORE PUSH2 0xD1F ADD MSTORE PUSH1 0x0 DUP2 DUP2 PUSH2 0x271 ADD MSTORE PUSH2 0xC58 ADD MSTORE PUSH1 0x0 DUP2 DUP2 PUSH2 0x12B ADD MSTORE PUSH2 0x882 ADD MSTORE PUSH1 0x0 DUP2 DUP2 PUSH2 0x298 ADD MSTORE PUSH2 0x6A3 ADD MSTORE PUSH1 0x0 DUP2 DUP2 PUSH2 0x1E0 ADD MSTORE DUP2 DUP2 PUSH2 0x49B ADD MSTORE DUP2 DUP2 PUSH2 0xC87 ADD MSTORE PUSH2 0xD51 ADD MSTORE PUSH1 0x0 DUP2 DUP2 PUSH2 0x2E0 ADD MSTORE DUP2 DUP2 PUSH2 0x5F5 ADD MSTORE DUP2 DUP2 PUSH2 0x728 ADD MSTORE PUSH2 0xB19 ADD MSTORE PUSH2 0x118F PUSH1 0x0 RETURN INVALID PUSH1 0x80 PUSH1 0x40 MSTORE CALLVALUE DUP1 ISZERO PUSH2 0x10 JUMPI PUSH1 0x0 DUP1 REVERT JUMPDEST POP PUSH1 0x4 CALLDATASIZE LT PUSH2 0x121 JUMPI PUSH1 0x0 CALLDATALOAD PUSH1 0xE0 SHR DUP1 PUSH4 0x61D027B3 GT PUSH2 0xAD JUMPI DUP1 PUSH4 0xC4261EB0 GT PUSH2 0x71 JUMPI DUP1 PUSH4 0xC4261EB0 EQ PUSH2 0x302 JUMPI DUP1 PUSH4 0xE3F4CE55 EQ PUSH2 0x315 JUMPI DUP1 PUSH4 0xE91983C9 EQ PUSH2 0x328 JUMPI DUP1 PUSH4 0xF851A440 EQ PUSH2 0x331 JUMPI DUP1 PUSH4 0xFBFA77CF EQ PUSH2 0x344 JUMPI PUSH1 0x0 DUP1 REVERT JUMPDEST DUP1 PUSH4 0x61D027B3 EQ PUSH2 0x26C JUMPI DUP1 PUSH4 0x7B103999 EQ PUSH2 0x293 JUMPI DUP1 PUSH4 0x958D12ED EQ PUSH2 0x2BA JUMPI DUP1 PUSH4 0xA9059CBB EQ PUSH2 0x2CD JUMPI DUP1 PUSH4 0xBF29D501 EQ PUSH2 0x2DB JUMPI PUSH1 0x0 DUP1 REVERT JUMPDEST DUP1 PUSH4 0x1E14D30F GT PUSH2 0xF4 JUMPI DUP1 PUSH4 0x1E14D30F EQ PUSH2 0x1A5 JUMPI DUP1 PUSH4 0x23B872DD EQ PUSH2 0x1B8 JUMPI DUP1 PUSH4 0x3E413BEE EQ PUSH2 0x1DB JUMPI DUP1 PUSH4 0x4903B0D1 EQ PUSH2 0x202 JUMPI DUP1 PUSH4 0x4AC64739 EQ PUSH2 0x230 JUMPI PUSH1 0x0 DUP1 REVERT JUMPDEST DUP1 PUSH4 0x22A255C EQ PUSH2 0x126 JUMPI DUP1 PUSH4 0x15DEC3CF EQ PUSH2 0x16A JUMPI DUP1 PUSH4 0x192468CF EQ PUSH2 0x17F JUMPI DUP1 PUSH4 0x1B2EF1CA EQ PUSH2 0x192 JUMPI JUMPDEST PUSH1 0x0 DUP1 REVERT JUMPDEST PUSH2 0x14D PUSH32 0x0 DUP2 JUMP JUMPDEST PUSH1 0x40 MLOAD PUSH1 0x1 PUSH1 0x1 PUSH1 0xA0 SHL SUB SWAP1 SWAP2 AND DUP2 MSTORE PUSH1 0x20 ADD JUMPDEST PUSH1 0x40 MLOAD DUP1 SWAP2 SUB SWAP1 RETURN JUMPDEST PUSH2 0x17D PUSH2 0x178 CALLDATASIZE PUSH1 0x4 PUSH2 0xE35 JUMP JUMPDEST PUSH2 0x36B JUMP JUMPDEST STOP JUMPDEST PUSH2 0x17D PUSH2 0x18D CALLDATASIZE PUSH1 0x4 PUSH2 0xE35 JUMP JUMPDEST PUSH2 0x54B JUMP JUMPDEST PUSH2 0x17D PUSH2 0x1A0 CALLDATASIZE PUSH1 0x4 PUSH2 0xE4E JUMP JUMPDEST PUSH2 0x5D5 JUMP JUMPDEST PUSH2 0x17D PUSH2 0x1B3 CALLDATASIZE PUSH1 0x4 PUSH2 0xE4E JUMP JUMPDEST PUSH2 0x698 JUMP JUMPDEST PUSH2 0x1CB PUSH2 0x1C6 CALLDATASIZE PUSH1 0x4 PUSH2 0xE88 JUMP JUMPDEST PUSH2 0x6ED JUMP JUMPDEST PUSH1 0x40 MLOAD SWAP1 ISZERO ISZERO DUP2 MSTORE PUSH1 0x20 ADD PUSH2 0x161 JUMP JUMPDEST PUSH2 0x14D PUSH32 0x0 DUP2 JUMP JUMPDEST PUSH2 0x222 PUSH2 0x210 CALLDATASIZE PUSH1 0x4 PUSH2 0xE35 JUMP JUMPDEST PUSH1 0x1 PUSH1 0x20 MSTORE PUSH1 0x0 SWAP1 DUP2 MSTORE PUSH1 0x40 SWAP1 KECCAK256 SLOAD DUP2 JUMP JUMPDEST PUSH1 0x40 MLOAD SWAP1 DUP2 MSTORE PUSH1 0x20 ADD PUSH2 0x161 JUMP JUMPDEST PUSH2 0x257 PUSH2 0x23E CALLDATASIZE PUSH1 0x4 PUSH2 0xE35 JUMP JUMPDEST PUSH1 0x2 PUSH1 0x20 MSTORE PUSH1 0x0 SWAP1 DUP2 MSTORE PUSH1 0x40 SWAP1 KECCAK256 DUP1 SLOAD PUSH1 0x1 SWAP1 SWAP2 ADD SLOAD DUP3 JUMP JUMPDEST PUSH1 0x40 DUP1 MLOAD SWAP3 DUP4 MSTORE PUSH1 0x20 DUP4 ADD SWAP2 SWAP1 SWAP2 MSTORE ADD PUSH2 0x161 JUMP JUMPDEST PUSH2 0x14D PUSH32 0x0 DUP2 JUMP JUMPDEST PUSH2 0x14D PUSH32 0x0 DUP2 JUMP JUMPDEST PUSH2 0x17D PUSH2 0x2C8 CALLDATASIZE PUSH1 0x4 PUSH2 0xE4E JUMP JUMPDEST PUSH2 0x708 JUMP JUMPDEST PUSH2 0x1CB PUSH2 0x1C6 CALLDATASIZE PUSH1 0x4 PUSH2 0xEC9 JUMP JUMPDEST PUSH2 0x14D PUSH32 0x0 DUP2 JUMP JUMPDEST PUSH2 0x17D PUSH2 0x310 CALLDATASIZE PUSH1 0x4 PUSH2 0xF41 JUMP JUMPDEST PUSH2 0x877 JUMP JUMPDEST PUSH2 0x17D PUSH2 0x323 CALLDATASIZE PUSH1 0x4 PUSH2 0xE35 JUMP JUMPDEST PUSH2 0xAF9 JUMP JUMPDEST PUSH2 0x222 PUSH1 0x3 SLOAD DUP2 JUMP JUMPDEST PUSH1 0x0 SLOAD PUSH2 0x14D SWAP1 PUSH1 0x1 PUSH1 0x1 PUSH1 0xA0 SHL SUB AND DUP2 JUMP JUMPDEST PUSH2 0x14D PUSH32 0x0 DUP2 JUMP JUMPDEST PUSH1 0x0 DUP2 DUP2 MSTORE PUSH1 0x2 PUSH1 0x20 SWAP1 DUP2 MSTORE PUSH1 0x40 DUP1 DUP4 KECCAK256 DUP2 MLOAD DUP1 DUP4 ADD SWAP1 SWAP3 MSTORE DUP1 SLOAD DUP1 DUP4 MSTORE PUSH1 0x1 SWAP1 SWAP2 ADD SLOAD SWAP3 DUP3 ADD SWAP3 SWAP1 SWAP3 MSTORE SWAP2 SUB PUSH2 0x3B5 JUMPI PUSH1 0x40 MLOAD PUSH4 0x2BB5659 PUSH1 0xE3 SHL DUP2 MSTORE PUSH1 0x4 ADD PUSH1 0x40 MLOAD DUP1 SWAP2 SUB SWAP1 REVERT JUMPDEST DUP1 PUSH1 0x20 ADD MLOAD TIMESTAMP LT ISZERO PUSH2 0x3DA JUMPI PUSH1 0x40 MLOAD PUSH4 0xE7BF6EC1 PUSH1 0xE0 SHL DUP2 MSTORE PUSH1 0x4 ADD PUSH1 0x40 MLOAD DUP1 SWAP2 SUB SWAP1 REVERT JUMPDEST DUP1 MLOAD PUSH1 0x0 DUP4 DUP2 MSTORE PUSH1 0x1 PUSH1 0x20 MSTORE PUSH1 0x40 SWAP1 KECCAK256 SLOAD DUP2 GT ISZERO PUSH2 0x403 JUMPI POP PUSH1 0x0 DUP3 DUP2 MSTORE PUSH1 0x1 PUSH1 0x20 MSTORE PUSH1 0x40 SWAP1 KECCAK256 SLOAD JUMPDEST PUSH1 0x0 DUP4 DUP2 MSTORE PUSH1 0x2 PUSH1 0x20 SWAP1 DUP2 MSTORE PUSH1 0x40 DUP1 DUP4 KECCAK256 DUP4 DUP2 SSTORE PUSH1 0x1 SWAP1 DUP2 ADD DUP5 SWAP1 SSTORE SWAP1 SWAP2 MSTORE DUP2 KECCAK256 DUP1 SLOAD DUP4 SWAP3 SWAP1 PUSH2 0x434 SWAP1 DUP5 SWAP1 PUSH2 0xFC3 JUMP JUMPDEST SWAP1 SWAP2 SSTORE POP PUSH1 0x0 SWAP1 POP PUSH2 0x447 PUSH1 0x64 DUP4 PUSH2 0xFDC JUMP JUMPDEST SWAP1 POP DUP1 ISZERO PUSH2 0x50A JUMPI PUSH1 0x40 MLOAD PUSH4 0x23B872DD PUSH1 0xE0 SHL DUP2 MSTORE PUSH1 0x1 PUSH1 0x1 PUSH1 0xA0 SHL SUB PUSH32 0x0 DUP2 AND PUSH1 0x4 DUP4 ADD MSTORE CALLER PUSH1 0x24 DUP4 ADD MSTORE PUSH1 0x44 DUP3 ADD DUP4 SWAP1 MSTORE PUSH32 0x0 AND SWAP1 PUSH4 0x23B872DD SWAP1 PUSH1 0x64 ADD PUSH1 0x20 PUSH1 0x40 MLOAD DUP1 DUP4 SUB DUP2 PUSH1 0x0 DUP8 GAS CALL ISZERO DUP1 ISZERO PUSH2 0x4E4 JUMPI RETURNDATASIZE PUSH1 0x0 DUP1 RETURNDATACOPY RETURNDATASIZE PUSH1 0x0 REVERT JUMPDEST POP POP POP POP PUSH1 0x40 MLOAD RETURNDATASIZE PUSH1 0x1F NOT PUSH1 0x1F DUP3 ADD AND DUP3 ADD DUP1 PUSH1 0x40 MSTORE POP DUP2 ADD SWAP1 PUSH2 0x508 SWAP2 SWAP1 PUSH2 0xFFE JUMP JUMPDEST POP JUMPDEST PUSH1 0x40 DUP1 MLOAD DUP4 DUP2 MSTORE PUSH1 0x20 DUP2 ADD DUP4 SWAP1 MSTORE DUP6 SWAP2 PUSH32 0x783E94F010BC7CE1BB1C87194A287F631A57AC415C2B3A09607225BC773C0288 SWAP2 ADD PUSH1 0x40 MLOAD DUP1 SWAP2 SUB SWAP1 LOG2 POP POP POP POP JUMP JUMPDEST PUSH1 0x0 SLOAD PUSH1 0x1 PUSH1 0x1 PUSH1 0xA0 SHL SUB AND CALLER EQ PUSH2 0x576 JUMPI PUSH1 0x40 MLOAD PUSH4 0x7BFA4B9F PUSH1 0xE0 SHL DUP2 MSTORE PUSH1 0x4 ADD PUSH1 0x40 MLOAD DUP1 SWAP2 SUB SWAP1 REVERT JUMPDEST PUSH3 0x15180 DUP2 GT ISZERO PUSH2 0x59A JUMPI PUSH1 0x40 MLOAD PUSH4 0x86586A3 PUSH1 0xE1 SHL DUP2 MSTORE PUSH1 0x4 ADD PUSH1 0x40 MLOAD DUP1 SWAP2 SUB SWAP1 REVERT JUMPDEST PUSH1 0x3 DUP2 SWAP1 SSTORE PUSH1 0x40 MLOAD DUP2 DUP2 MSTORE PUSH32 0x6705FE8655F99B3335CEC249F61897328BE414A3060EC988908CD5E4ECCD67C2 SWAP1 PUSH1 0x20 ADD PUSH1 0x40 MLOAD DUP1 SWAP2 SUB SWAP1 LOG1 POP JUMP JUMPDEST PUSH1 0x40 MLOAD PUSH4 0x31A9108F PUSH1 0xE1 SHL DUP2 MSTORE PUSH1 0x4 DUP2 ADD DUP4 SWAP1 MSTORE CALLER SWAP1 PUSH1 0x1 PUSH1 0x1 PUSH1 0xA0 SHL SUB PUSH32 0x0 AND SWAP1 PUSH4 0x6352211E SWAP1 PUSH1 0x24 ADD PUSH1 0x20 PUSH1 0x40 MLOAD DUP1 DUP4 SUB DUP2 DUP7 GAS STATICCALL ISZERO DUP1 ISZERO PUSH2 0x63C JUMPI RETURNDATASIZE PUSH1 0x0 DUP1 RETURNDATACOPY RETURNDATASIZE PUSH1 0x0 REVERT JUMPDEST POP POP POP POP PUSH1 0x40 MLOAD RETURNDATASIZE PUSH1 0x1F NOT PUSH1 0x1F DUP3 ADD AND DUP3 ADD DUP1 PUSH1 0x40 MSTORE POP DUP2 ADD SWAP1 PUSH2 0x660 SWAP2 SWAP1 PUSH2 0x1027 JUMP JUMPDEST PUSH1 0x1 PUSH1 0x1 PUSH1 0xA0 SHL SUB AND EQ PUSH2 0x687 JUMPI PUSH1 0x40 MLOAD PUSH4 0xE41DCBF PUSH1 0xE2 SHL DUP2 MSTORE PUSH1 0x4 ADD PUSH1 0x40 MLOAD DUP1 SWAP2 SUB SWAP1 REVERT JUMPDEST PUSH2 0x694 DUP3 DUP3 PUSH2 0x3E8 PUSH2 0xC1A JUMP JUMPDEST POP POP JUMP JUMPDEST CALLER PUSH1 0x1 PUSH1 0x1 PUSH1 0xA0 SHL SUB PUSH32 0x0 AND EQ PUSH2 0x6E1 JUMPI PUSH1 0x40 MLOAD PUSH4 0x3217675B PUSH1 0xE2 SHL DUP2 MSTORE PUSH1 0x4 ADD PUSH1 0x40 MLOAD DUP1 SWAP2 SUB SWAP1 REVERT JUMPDEST PUSH2 0x694 DUP3 DUP3 PUSH1 0x0 PUSH2 0xC1A JUMP JUMPDEST PUSH1 0x0 PUSH1 0x40 MLOAD PUSH4 0x9CBE2357 PUSH1 0xE0 SHL DUP2 MSTORE PUSH1 0x4 ADD PUSH1 0x40 MLOAD DUP1 SWAP2 SUB SWAP1 REVERT JUMPDEST PUSH1 0x40 MLOAD PUSH4 0x31A9108F PUSH1 0xE1 SHL DUP2 MSTORE PUSH1 0x4 DUP2 ADD DUP4 SWAP1 MSTORE CALLER SWAP1 PUSH1 0x1 PUSH1 0x1 PUSH1 0xA0 SHL SUB PUSH32 0x0 AND SWAP1 PUSH4 0x6352211E SWAP1 PUSH1 0x24 ADD PUSH1 0x20 PUSH1 0x40 MLOAD DUP1 DUP4 SUB DUP2 DUP7 GAS STATICCALL ISZERO DUP1 ISZERO PUSH2 0x76F JUMPI RETURNDATASIZE PUSH1 0x0 DUP1 RETURNDATACOPY RETURNDATASIZE PUSH1 0x0 REVERT JUMPDEST POP POP POP POP PUSH1 0x40 MLOAD RETURNDATASIZE PUSH1 0x1F NOT PUSH1 0x1F DUP3 ADD AND DUP3 ADD DUP1 PUSH1 0x40 MSTORE POP DUP2 ADD SWAP1 PUSH2 0x793 SWAP2 SWAP1 PUSH2 0x1027 JUMP JUMPDEST PUSH1 0x1 PUSH1 0x1 PUSH1 0xA0 SHL SUB AND EQ PUSH2 0x7BA JUMPI PUSH1 0x40 MLOAD PUSH4 0xE41DCBF PUSH1 0xE2 SHL DUP2 MSTORE PUSH1 0x4 ADD PUSH1 0x40 MLOAD DUP1 SWAP2 SUB SWAP1 REVERT JUMPDEST PUSH1 0x0 DUP3 DUP2 MSTORE PUSH1 0x1 PUSH1 0x20 MSTORE PUSH1 0x40 SWAP1 KECCAK256 SLOAD DUP2 GT ISZERO PUSH2 0x7E9 JUMPI PUSH1 0x40 MLOAD PUSH4 0x1E9ACF17 PUSH1 0xE3 SHL DUP2 MSTORE PUSH1 0x4 ADD PUSH1 0x40 MLOAD DUP1 SWAP2 SUB SWAP1 REVERT JUMPDEST PUSH1 0x40 MLOAD DUP1 PUSH1 0x40 ADD PUSH1 0x40 MSTORE DUP1 DUP3 DUP2 MSTORE PUSH1 0x20 ADD PUSH1 0x3 SLOAD TIMESTAMP PUSH2 0x808 SWAP2 SWAP1 PUSH2 0x1044 JUMP JUMPDEST SWAP1 MSTORE PUSH1 0x0 DUP4 DUP2 MSTORE PUSH1 0x2 PUSH1 0x20 SWAP1 DUP2 MSTORE PUSH1 0x40 SWAP1 SWAP2 KECCAK256 DUP3 MLOAD DUP2 SSTORE SWAP2 ADD MLOAD PUSH1 0x1 SWAP1 SWAP2 ADD SSTORE PUSH1 0x3 SLOAD DUP3 SWAP1 PUSH32 0xFE0745D0E1F974939364D92B447107024CE1CDE89F062581497C753D2D653C6 SWAP1 DUP4 SWAP1 PUSH2 0x85B SWAP1 TIMESTAMP PUSH2 0x1044 JUMP JUMPDEST PUSH1 0x40 DUP1 MLOAD SWAP3 DUP4 MSTORE PUSH1 0x20 DUP4 ADD SWAP2 SWAP1 SWAP2 MSTORE ADD PUSH1 0x40 MLOAD DUP1 SWAP2 SUB SWAP1 LOG2 POP POP JUMP JUMPDEST CALLER PUSH1 0x1 PUSH1 0x1 PUSH1 0xA0 SHL SUB PUSH32 0x0 AND EQ PUSH2 0x8C0 JUMPI PUSH1 0x40 MLOAD PUSH4 0x54CB8515 PUSH1 0xE0 SHL DUP2 MSTORE PUSH1 0x4 ADD PUSH1 0x40 MLOAD DUP1 SWAP2 SUB SWAP1 REVERT JUMPDEST DUP3 DUP2 EQ PUSH2 0x8E3 JUMPI PUSH1 0x40 MLOAD PUSH1 0x1 PUSH3 0x1398B9 PUSH1 0xE3 SHL SUB NOT DUP2 MSTORE PUSH1 0x4 ADD PUSH1 0x40 MLOAD DUP1 SWAP2 SUB SWAP1 REVERT JUMPDEST PUSH1 0x0 DUP1 JUMPDEST DUP3 DUP2 LT ISZERO PUSH2 0x927 JUMPI DUP4 DUP4 DUP3 DUP2 DUP2 LT PUSH2 0x901 JUMPI PUSH2 0x901 PUSH2 0x1057 JUMP JUMPDEST SWAP1 POP PUSH1 0x20 MUL ADD CALLDATALOAD DUP3 PUSH2 0x913 SWAP2 SWAP1 PUSH2 0x106D JUMP JUMPDEST SWAP2 POP DUP1 PUSH2 0x91F DUP2 PUSH2 0x1095 JUMP JUMPDEST SWAP2 POP POP PUSH2 0x8E7 JUMP JUMPDEST POP DUP1 ISZERO PUSH2 0x947 JUMPI PUSH1 0x40 MLOAD PUSH4 0x5404D80F PUSH1 0xE1 SHL DUP2 MSTORE PUSH1 0x4 ADD PUSH1 0x40 MLOAD DUP1 SWAP2 SUB SWAP1 REVERT JUMPDEST PUSH1 0x0 JUMPDEST DUP5 DUP2 LT ISZERO PUSH2 0xAB4 JUMPI PUSH1 0x0 DUP5 DUP5 DUP4 DUP2 DUP2 LT PUSH2 0x966 JUMPI PUSH2 0x966 PUSH2 0x1057 JUMP JUMPDEST SWAP1 POP PUSH1 0x20 MUL ADD CALLDATALOAD SLT PUSH2 0x9D0 JUMPI DUP4 DUP4 DUP3 DUP2 DUP2 LT PUSH2 0x984 JUMPI PUSH2 0x984 PUSH2 0x1057 JUMP JUMPDEST SWAP1 POP PUSH1 0x20 MUL ADD CALLDATALOAD PUSH1 0x1 PUSH1 0x0 DUP9 DUP9 DUP6 DUP2 DUP2 LT PUSH2 0x9A1 JUMPI PUSH2 0x9A1 PUSH2 0x1057 JUMP JUMPDEST SWAP1 POP PUSH1 0x20 MUL ADD CALLDATALOAD DUP2 MSTORE PUSH1 0x20 ADD SWAP1 DUP2 MSTORE PUSH1 0x20 ADD PUSH1 0x0 KECCAK256 PUSH1 0x0 DUP3 DUP3 SLOAD PUSH2 0x9C5 SWAP2 SWAP1 PUSH2 0x1044 JUMP JUMPDEST SWAP1 SWAP2 SSTORE POP PUSH2 0xAA2 SWAP1 POP JUMP JUMPDEST PUSH1 0x0 DUP5 DUP5 DUP4 DUP2 DUP2 LT PUSH2 0x9E4 JUMPI PUSH2 0x9E4 PUSH2 0x1057 JUMP JUMPDEST SWAP1 POP PUSH1 0x20 MUL ADD CALLDATALOAD PUSH2 0x9F4 SWAP1 PUSH2 0x10AE JUMP JUMPDEST SWAP1 POP DUP1 PUSH1 0x1 PUSH1 0x0 DUP10 DUP10 DUP7 DUP2 DUP2 LT PUSH2 0xA0D JUMPI PUSH2 0xA0D PUSH2 0x1057 JUMP JUMPDEST SWAP1 POP PUSH1 0x20 MUL ADD CALLDATALOAD DUP2 MSTORE PUSH1 0x20 ADD SWAP1 DUP2 MSTORE PUSH1 0x20 ADD PUSH1 0x0 KECCAK256 SLOAD LT ISZERO PUSH2 0xA5F JUMPI PUSH1 0x0 PUSH1 0x1 PUSH1 0x0 DUP10 DUP10 DUP7 DUP2 DUP2 LT PUSH2 0xA41 JUMPI PUSH2 0xA41 PUSH2 0x1057 JUMP JUMPDEST SWAP1 POP PUSH1 0x20 MUL ADD CALLDATALOAD DUP2 MSTORE PUSH1 0x20 ADD SWAP1 DUP2 MSTORE PUSH1 0x20 ADD PUSH1 0x0 KECCAK256 DUP2 SWAP1 SSTORE POP PUSH2 0xAA0 JUMP JUMPDEST DUP1 PUSH1 0x1 PUSH1 0x0 DUP10 DUP10 DUP7 DUP2 DUP2 LT PUSH2 0xA76 JUMPI PUSH2 0xA76 PUSH2 0x1057 JUMP JUMPDEST SWAP1 POP PUSH1 0x20 MUL ADD CALLDATALOAD DUP2 MSTORE PUSH1 0x20 ADD SWAP1 DUP2 MSTORE PUSH1 0x20 ADD PUSH1 0x0 KECCAK256 PUSH1 0x0 DUP3 DUP3 SLOAD PUSH2 0xA9A SWAP2 SWAP1 PUSH2 0xFC3 JUMP JUMPDEST SWAP1 SWAP2 SSTORE POP POP JUMPDEST POP JUMPDEST DUP1 PUSH2 0xAAC DUP2 PUSH2 0x1095 JUMP JUMPDEST SWAP2 POP POP PUSH2 0x94A JUMP JUMPDEST POP PUSH32 0xF6B31A7725CEBF7AC016964093222CEE306F2B15276769898C99385987DD14D4 DUP6 DUP6 DUP6 DUP6 PUSH1 0x40 MLOAD PUSH2 0xAEA SWAP5 SWAP4 SWAP3 SWAP2 SWAP1 PUSH2 0x10CA JUMP JUMPDEST PUSH1 0x40 MLOAD DUP1 SWAP2 SUB SWAP1 LOG1 POP POP POP POP POP JUMP JUMPDEST PUSH1 0x40 MLOAD PUSH4 0x31A9108F PUSH1 0xE1 SHL DUP2 MSTORE PUSH1 0x4 DUP2 ADD DUP3 SWAP1 MSTORE CALLER SWAP1 PUSH1 0x1 PUSH1 0x1 PUSH1 0xA0 SHL SUB PUSH32 0x0 AND SWAP1 PUSH4 0x6352211E SWAP1 PUSH1 0x24 ADD PUSH1 0x20 PUSH1 0x40 MLOAD DUP1 DUP4 SUB DUP2 DUP7 GAS STATICCALL ISZERO DUP1 ISZERO PUSH2 0xB60 JUMPI RETURNDATASIZE PUSH1 0x0 DUP1 RETURNDATACOPY RETURNDATASIZE PUSH1 0x0 REVERT JUMPDEST POP POP POP POP PUSH1 0x40 MLOAD RETURNDATASIZE PUSH1 0x1F NOT PUSH1 0x1F DUP3 ADD AND DUP3 ADD DUP1 PUSH1 0x40 MSTORE POP DUP2 ADD SWAP1 PUSH2 0xB84 SWAP2 SWAP1 PUSH2 0x1027 JUMP JUMPDEST PUSH1 0x1 PUSH1 0x1 PUSH1 0xA0 SHL SUB AND EQ PUSH2 0xBAB JUMPI PUSH1 0x40 MLOAD PUSH4 0xE41DCBF PUSH1 0xE2 SHL DUP2 MSTORE PUSH1 0x4 ADD PUSH1 0x40 MLOAD DUP1 SWAP2 SUB SWAP1 REVERT JUMPDEST PUSH1 0x0 DUP2 DUP2 MSTORE PUSH1 0x2 PUSH1 0x20 MSTORE PUSH1 0x40 DUP2 KECCAK256 SLOAD SWAP1 SUB PUSH2 0xBD9 JUMPI PUSH1 0x40 MLOAD PUSH4 0x2BB5659 PUSH1 0xE3 SHL DUP2 MSTORE PUSH1 0x4 ADD PUSH1 0x40 MLOAD DUP1 SWAP2 SUB SWAP1 REVERT JUMPDEST PUSH1 0x0 DUP2 DUP2 MSTORE PUSH1 0x2 PUSH1 0x20 MSTORE PUSH1 0x40 DUP1 DUP3 KECCAK256 DUP3 DUP2 SSTORE PUSH1 0x1 ADD DUP3 SWAP1 SSTORE MLOAD DUP3 SWAP2 PUSH32 0xE9ED7BDE96CEE51D7FF139ECE9EA942FA728364C0CC8454774688B2103CEB7D7 SWAP2 LOG2 POP JUMP JUMPDEST PUSH1 0x0 PUSH2 0x2710 PUSH2 0xC29 DUP4 DUP6 PUSH2 0x1142 JUMP JUMPDEST PUSH2 0xC33 SWAP2 SWAP1 PUSH2 0xFDC JUMP JUMPDEST SWAP1 POP DUP1 ISZERO PUSH2 0xCF6 JUMPI PUSH1 0x40 MLOAD PUSH4 0x23B872DD PUSH1 0xE0 SHL DUP2 MSTORE CALLER PUSH1 0x4 DUP3 ADD MSTORE PUSH1 0x1 PUSH1 0x1 PUSH1 0xA0 SHL SUB PUSH32 0x0 DUP2 AND PUSH1 0x24 DUP4 ADD MSTORE PUSH1 0x44 DUP3 ADD DUP4 SWAP1 MSTORE PUSH32 0x0 AND SWAP1 PUSH4 0x23B872DD SWAP1 PUSH1 0x64 ADD PUSH1 0x20 PUSH1 0x40 MLOAD DUP1 DUP4 SUB DUP2 PUSH1 0x0 DUP8 GAS CALL ISZERO DUP1 ISZERO PUSH2 0xCD0 JUMPI RETURNDATASIZE PUSH1 0x0 DUP1 RETURNDATACOPY RETURNDATASIZE PUSH1 0x0 REVERT JUMPDEST POP POP POP POP PUSH1 0x40 MLOAD RETURNDATASIZE PUSH1 0x1F NOT PUSH1 0x1F DUP3 ADD AND DUP3 ADD DUP1 PUSH1 0x40 MSTORE POP DUP2 ADD SWAP1 PUSH2 0xCF4 SWAP2 SWAP1 PUSH2 0xFFE JUMP JUMPDEST POP JUMPDEST PUSH1 0x0 PUSH2 0xD02 DUP3 DUP6 PUSH2 0xFC3 JUMP JUMPDEST PUSH1 0x40 MLOAD PUSH4 0x23B872DD PUSH1 0xE0 SHL DUP2 MSTORE CALLER PUSH1 0x4 DUP3 ADD MSTORE PUSH1 0x1 PUSH1 0x1 PUSH1 0xA0 SHL SUB PUSH32 0x0 DUP2 AND PUSH1 0x24 DUP4 ADD MSTORE PUSH1 0x44 DUP3 ADD DUP4 SWAP1 MSTORE SWAP2 SWAP3 POP PUSH32 0x0 SWAP1 SWAP2 AND SWAP1 PUSH4 0x23B872DD SWAP1 PUSH1 0x64 ADD PUSH1 0x20 PUSH1 0x40 MLOAD DUP1 DUP4 SUB DUP2 PUSH1 0x0 DUP8 GAS CALL ISZERO DUP1 ISZERO PUSH2 0xD9C JUMPI RETURNDATASIZE PUSH1 0x0 DUP1 RETURNDATACOPY RETURNDATASIZE PUSH1 0x0 REVERT JUMPDEST POP POP POP POP PUSH1 0x40 MLOAD RETURNDATASIZE PUSH1 0x1F NOT PUSH1 0x1F DUP3 ADD AND DUP3 ADD DUP1 PUSH1 0x40 MSTORE POP DUP2 ADD SWAP1 PUSH2 0xDC0 SWAP2 SWAP1 PUSH2 0xFFE JUMP JUMPDEST POP PUSH1 0x0 PUSH2 0xDCE DUP3 PUSH1 0x64 PUSH2 0x1142 JUMP JUMPDEST SWAP1 POP DUP1 PUSH1 0x1 PUSH1 0x0 DUP9 DUP2 MSTORE PUSH1 0x20 ADD SWAP1 DUP2 MSTORE PUSH1 0x20 ADD PUSH1 0x0 KECCAK256 PUSH1 0x0 DUP3 DUP3 SLOAD PUSH2 0xDF3 SWAP2 SWAP1 PUSH2 0x1044 JUMP JUMPDEST SWAP1 SWAP2 SSTORE POP POP PUSH1 0x40 MLOAD DUP2 DUP2 MSTORE DUP7 SWAP1 PUSH32 0x83A581B548E565C38D88B98680DC3B5E20CBDAAE97A0B0C1ECF6D500DBB13BFF SWAP1 PUSH1 0x20 ADD PUSH1 0x40 MLOAD DUP1 SWAP2 SUB SWAP1 LOG2 POP POP POP POP POP POP JUMP JUMPDEST PUSH1 0x0 PUSH1 0x20 DUP3 DUP5 SUB SLT ISZERO PUSH2 0xE47 JUMPI PUSH1 0x0 DUP1 REVERT JUMPDEST POP CALLDATALOAD SWAP2 SWAP1 POP JUMP JUMPDEST PUSH1 0x0 DUP1 PUSH1 0x40 DUP4 DUP6 SUB SLT ISZERO PUSH2 0xE61 JUMPI PUSH1 0x0 DUP1 REVERT JUMPDEST POP POP DUP1 CALLDATALOAD SWAP3 PUSH1 0x20 SWAP1 SWAP2 ADD CALLDATALOAD SWAP2 POP JUMP JUMPDEST PUSH1 0x1 PUSH1 0x1 PUSH1 0xA0 SHL SUB DUP2 AND DUP2 EQ PUSH2 0xE85 JUMPI PUSH1 0x0 DUP1 REVERT JUMPDEST POP JUMP JUMPDEST PUSH1 0x0 DUP1 PUSH1 0x0 PUSH1 0x60 DUP5 DUP7 SUB SLT ISZERO PUSH2 0xE9D JUMPI PUSH1 0x0 DUP1 REVERT JUMPDEST DUP4 CALLDATALOAD PUSH2 0xEA8 DUP2 PUSH2 0xE70 JUMP JUMPDEST SWAP3 POP PUSH1 0x20 DUP5 ADD CALLDATALOAD PUSH2 0xEB8 DUP2 PUSH2 0xE70 JUMP JUMPDEST SWAP3 SWAP6 SWAP3 SWAP5 POP POP POP PUSH1 0x40 SWAP2 SWAP1 SWAP2 ADD CALLDATALOAD SWAP1 JUMP JUMPDEST PUSH1 0x0 DUP1 PUSH1 0x40 DUP4 DUP6 SUB SLT ISZERO PUSH2 0xEDC JUMPI PUSH1 0x0 DUP1 REVERT JUMPDEST DUP3 CALLDATALOAD PUSH2 0xEE7 DUP2 PUSH2 0xE70 JUMP JUMPDEST SWAP5 PUSH1 0x20 SWAP4 SWAP1 SWAP4 ADD CALLDATALOAD SWAP4 POP POP POP JUMP JUMPDEST PUSH1 0x0 DUP1 DUP4 PUSH1 0x1F DUP5 ADD SLT PUSH2 0xF07 JUMPI PUSH1 0x0 DUP1 REVERT JUMPDEST POP DUP2 CALLDATALOAD PUSH8 0xFFFFFFFFFFFFFFFF DUP2 GT ISZERO PUSH2 0xF1F JUMPI PUSH1 0x0 DUP1 REVERT JUMPDEST PUSH1 0x20 DUP4 ADD SWAP2 POP DUP4 PUSH1 0x20 DUP3 PUSH1 0x5 SHL DUP6 ADD ADD GT ISZERO PUSH2 0xF3A JUMPI PUSH1 0x0 DUP1 REVERT JUMPDEST SWAP3 POP SWAP3 SWAP1 POP JUMP JUMPDEST PUSH1 0x0 DUP1 PUSH1 0x0 DUP1 PUSH1 0x40 DUP6 DUP8 SUB SLT ISZERO PUSH2 0xF57 JUMPI PUSH1 0x0 DUP1 REVERT JUMPDEST DUP5 CALLDATALOAD PUSH8 0xFFFFFFFFFFFFFFFF DUP1 DUP3 GT ISZERO PUSH2 0xF6F JUMPI PUSH1 0x0 DUP1 REVERT JUMPDEST PUSH2 0xF7B DUP9 DUP4 DUP10 ADD PUSH2 0xEF5 JUMP JUMPDEST SWAP1 SWAP7 POP SWAP5 POP PUSH1 0x20 DUP8 ADD CALLDATALOAD SWAP2 POP DUP1 DUP3 GT ISZERO PUSH2 0xF94 JUMPI PUSH1 0x0 DUP1 REVERT JUMPDEST POP PUSH2 0xFA1 DUP8 DUP3 DUP9 ADD PUSH2 0xEF5 JUMP JUMPDEST SWAP6 SWAP9 SWAP5 SWAP8 POP SWAP6 POP POP POP POP JUMP JUMPDEST PUSH4 0x4E487B71 PUSH1 0xE0 SHL PUSH1 0x0 MSTORE PUSH1 0x11 PUSH1 0x4 MSTORE PUSH1 0x24 PUSH1 0x0 REVERT JUMPDEST DUP2 DUP2 SUB DUP2 DUP2 GT ISZERO PUSH2 0xFD6 JUMPI PUSH2 0xFD6 PUSH2 0xFAD JUMP JUMPDEST SWAP3 SWAP2 POP POP JUMP JUMPDEST PUSH1 0x0 DUP3 PUSH2 0xFF9 JUMPI PUSH4 0x4E487B71 PUSH1 0xE0 SHL PUSH1 0x0 MSTORE PUSH1 0x12 PUSH1 0x4 MSTORE PUSH1 0x24 PUSH1 0x0 REVERT JUMPDEST POP DIV SWAP1 JUMP JUMPDEST PUSH1 0x0 PUSH1 0x20 DUP3 DUP5 SUB SLT ISZERO PUSH2 0x1010 JUMPI PUSH1 0x0 DUP1 REVERT JUMPDEST DUP2 MLOAD DUP1 ISZERO ISZERO DUP2 EQ PUSH2 0x1020 JUMPI PUSH1 0x0 DUP1 REVERT JUMPDEST SWAP4 SWAP3 POP POP POP JUMP JUMPDEST PUSH1 0x0 PUSH1 0x20 DUP3 DUP5 SUB SLT ISZERO PUSH2 0x1039 JUMPI PUSH1 0x0 DUP1 REVERT JUMPDEST DUP2 MLOAD PUSH2 0x1020 DUP2 PUSH2 0xE70 JUMP JUMPDEST DUP1 DUP3 ADD DUP1 DUP3 GT ISZERO PUSH2 0xFD6 JUMPI PUSH2 0xFD6 PUSH2 0xFAD JUMP JUMPDEST PUSH4 0x4E487B71 PUSH1 0xE0 SHL PUSH1 0x0 MSTORE PUSH1 0x32 PUSH1 0x4 MSTORE PUSH1 0x24 PUSH1 0x0 REVERT JUMPDEST DUP1 DUP3 ADD DUP3 DUP2 SLT PUSH1 0x0 DUP4 SLT DUP1 ISZERO DUP3 AND DUP3 ISZERO DUP3 AND OR ISZERO PUSH2 0x108D JUMPI PUSH2 0x108D PUSH2 0xFAD JUMP JUMPDEST POP POP SWAP3 SWAP2 POP POP JUMP JUMPDEST PUSH1 0x0 PUSH1 0x1 DUP3 ADD PUSH2 0x10A7 JUMPI PUSH2 0x10A7 PUSH2 0xFAD JUMP JUMPDEST POP PUSH1 0x1 ADD SWAP1 JUMP JUMPDEST PUSH1 0x0 PUSH1 0x1 PUSH1 0xFF SHL DUP3 ADD PUSH2 0x10C3 JUMPI PUSH2 0x10C3 PUSH2 0xFAD JUMP JUMPDEST POP PUSH1 0x0 SUB SWAP1 JUMP JUMPDEST PUSH1 0x40 DUP1 DUP3 MSTORE DUP2 ADD DUP5 SWAP1 MSTORE PUSH1 0x0 PUSH1 0x1 PUSH1 0x1 PUSH1 0xFB SHL SUB DUP6 GT ISZERO PUSH2 0x10EA JUMPI PUSH1 0x0 DUP1 REVERT JUMPDEST DUP5 PUSH1 0x5 SHL DUP1 DUP8 PUSH1 0x60 DUP6 ADD CALLDATACOPY PUSH1 0x60 SWAP1 DUP4 ADD DUP4 DUP2 SUB DUP3 ADD PUSH1 0x20 DUP1 DUP7 ADD SWAP2 SWAP1 SWAP2 MSTORE SWAP2 DUP2 ADD DUP6 SWAP1 MSTORE DUP6 SWAP2 PUSH1 0x0 SWAP2 PUSH1 0x80 ADD JUMPDEST DUP7 DUP4 LT ISZERO PUSH2 0x1135 JUMPI DUP4 CALLDATALOAD DUP2 MSTORE SWAP3 DUP2 ADD SWAP3 PUSH1 0x1 SWAP3 SWAP1 SWAP3 ADD SWAP2 DUP2 ADD PUSH2 0x1117 JUMP JUMPDEST SWAP10 SWAP9 POP POP POP POP POP POP POP POP POP JUMP JUMPDEST DUP1 DUP3 MUL DUP2 ISZERO DUP3 DUP3 DIV DUP5 EQ OR PUSH2 0xFD6 JUMPI PUSH2 0xFD6 PUSH2 0xFAD JUMP INVALID LOG2 PUSH5 0x6970667358 0x22 SLT KECCAK256 0x5C SWAP11 0x29 0x2A 0xE0 DUP3 SWAP14 0x5E 0xCD 0xF9 EXTCODECOPY SDIV PUSH26 0x3F64F4639B01E853E77A5F4B7F6478721EDC64736F6C634300 ADDMOD EQ STOP CALLER "},"methodIdentifiers":{"admin()":"f851a440","balances(uint256)":"4903b0d1","burnDelay()":"e91983c9","cancelBurn(uint256)":"e3f4ce55","canonical8004()":"bf29d501","executeBurn(uint256)":"15dec3cf","gameAnchor()":"022a255c","mint(uint256,uint256)":"1b2ef1ca","mintFor(uint256,uint256)":"1e14d30f","pendingBurns(uint256)":"4ac64739","registry()":"7b103999","requestBurn(uint256,uint256)":"958d12ed","setBurnDelay(uint256)":"192468cf","settleDeltas(uint256[],int256[])":"c4261eb0","transfer(address,uint256)":"a9059cbb","transferFrom(address,address,uint256)":"23b872dd","treasury()":"61d027b3","usdc()":"3e413bee","vault()":"fbfa77cf"}}}}}