{
  "_format": "hh-sol-artifact-1",
  "contractName": "CoordinationRegistry",
  "sourceName": "contracts/CoordinationRegistry.sol",
  "abi": [
    {
      "inputs": [
        {
          "internalType": "address",
          "name": "_canonical8004",
          "type": "address"
        },
        {
          "internalType": "address",
          "name": "_usdc",
          "type": "address"
        },
        {
          "internalType": "address",
          "name": "_creditContract",
          "type": "address"
        },
        {
          "internalType": "address",
          "name": "_treasury",
          "type": "address"
        }
      ],
      "stateMutability": "nonpayable",
      "type": "constructor"
    },
    {
      "inputs": [],
      "name": "AlreadyRegistered",
      "type": "error"
    },
    {
      "inputs": [],
      "name": "InvalidName",
      "type": "error"
    },
    {
      "inputs": [],
      "name": "NameTaken",
      "type": "error"
    },
    {
      "inputs": [],
      "name": "NotAgentOwner",
      "type": "error"
    },
    {
      "anonymous": false,
      "inputs": [
        {
          "indexed": true,
          "internalType": "address",
          "name": "user",
          "type": "address"
        },
        {
          "indexed": true,
          "internalType": "uint256",
          "name": "agentId",
          "type": "uint256"
        },
        {
          "indexed": false,
          "internalType": "string",
          "name": "name",
          "type": "string"
        }
      ],
      "name": "Registered",
      "type": "event"
    },
    {
      "inputs": [],
      "name": "canonical8004",
      "outputs": [
        {
          "internalType": "contract IERC8004",
          "name": "",
          "type": "address"
        }
      ],
      "stateMutability": "view",
      "type": "function"
    },
    {
      "inputs": [
        {
          "internalType": "string",
          "name": "name",
          "type": "string"
        }
      ],
      "name": "checkName",
      "outputs": [
        {
          "internalType": "bool",
          "name": "available",
          "type": "bool"
        }
      ],
      "stateMutability": "view",
      "type": "function"
    },
    {
      "inputs": [],
      "name": "creditContract",
      "outputs": [
        {
          "internalType": "contract ICoordinationCredits",
          "name": "",
          "type": "address"
        }
      ],
      "stateMutability": "view",
      "type": "function"
    },
    {
      "inputs": [
        {
          "internalType": "uint256",
          "name": "",
          "type": "uint256"
        }
      ],
      "name": "displayName",
      "outputs": [
        {
          "internalType": "string",
          "name": "",
          "type": "string"
        }
      ],
      "stateMutability": "view",
      "type": "function"
    },
    {
      "inputs": [
        {
          "internalType": "bytes32",
          "name": "",
          "type": "bytes32"
        }
      ],
      "name": "nameToAgent",
      "outputs": [
        {
          "internalType": "uint256",
          "name": "",
          "type": "uint256"
        }
      ],
      "stateMutability": "view",
      "type": "function"
    },
    {
      "inputs": [
        {
          "internalType": "string",
          "name": "name",
          "type": "string"
        },
        {
          "internalType": "uint256",
          "name": "agentId",
          "type": "uint256"
        },
        {
          "internalType": "uint256",
          "name": "deadline",
          "type": "uint256"
        },
        {
          "internalType": "uint8",
          "name": "v",
          "type": "uint8"
        },
        {
          "internalType": "bytes32",
          "name": "r",
          "type": "bytes32"
        },
        {
          "internalType": "bytes32",
          "name": "s",
          "type": "bytes32"
        }
      ],
      "name": "registerExisting",
      "outputs": [],
      "stateMutability": "nonpayable",
      "type": "function"
    },
    {
      "inputs": [
        {
          "internalType": "string",
          "name": "name",
          "type": "string"
        },
        {
          "internalType": "string",
          "name": "agentURI",
          "type": "string"
        },
        {
          "internalType": "uint256",
          "name": "deadline",
          "type": "uint256"
        },
        {
          "internalType": "uint8",
          "name": "v",
          "type": "uint8"
        },
        {
          "internalType": "bytes32",
          "name": "r",
          "type": "bytes32"
        },
        {
          "internalType": "bytes32",
          "name": "s",
          "type": "bytes32"
        }
      ],
      "name": "registerNew",
      "outputs": [],
      "stateMutability": "nonpayable",
      "type": "function"
    },
    {
      "inputs": [
        {
          "internalType": "uint256",
          "name": "",
          "type": "uint256"
        }
      ],
      "name": "registered",
      "outputs": [
        {
          "internalType": "bool",
          "name": "",
          "type": "bool"
        }
      ],
      "stateMutability": "view",
      "type": "function"
    },
    {
      "inputs": [],
      "name": "treasury",
      "outputs": [
        {
          "internalType": "address",
          "name": "",
          "type": "address"
        }
      ],
      "stateMutability": "view",
      "type": "function"
    },
    {
      "inputs": [],
      "name": "usdc",
      "outputs": [
        {
          "internalType": "contract IUSDC",
          "name": "",
          "type": "address"
        }
      ],
      "stateMutability": "view",
      "type": "function"
    }
  ],
  "bytecode": "0x6101006040523480156200001257600080fd5b50604051620012d1380380620012d1833981016040819052620000359162000075565b6001600160a01b0393841660805291831660a052821660c0521660e052620000d2565b80516001600160a01b03811681146200007057600080fd5b919050565b600080600080608085870312156200008c57600080fd5b620000978562000058565b9350620000a76020860162000058565b9250620000b76040860162000058565b9150620000c76060860162000058565b905092959194509250565b60805160a05160c05160e051611180620001516000396000818161015d01526109800152600081816101ab01528181610a770152610bd101526000818160fe0152818161030101528181610461015281816109b101528181610aa80152610b44015260008181610184015281816103af015261050901526111806000f3fe608060405234801561001057600080fd5b506004361061009e5760003560e01c8063bf29d50111610066578063bf29d5011461017f578063c24375cf146101a6578063e6cf1346146101cd578063ec5a195e146101f0578063f7eb86b31461020557600080fd5b80631400d1e4146100a35780632af3d511146100cb5780633e413bee146100f95780635814595f1461013857806361d027b314610158575b600080fd5b6100b66100b1366004610cc9565b610218565b60405190151581526020015b60405180910390f35b6100eb6100d9366004610d0b565b60006020819052908152604090205481565b6040519081526020016100c2565b6101207f000000000000000000000000000000000000000000000000000000000000000081565b6040516001600160a01b0390911681526020016100c2565b61014b610146366004610d0b565b61025d565b6040516100c29190610d24565b6101207f000000000000000000000000000000000000000000000000000000000000000081565b6101207f000000000000000000000000000000000000000000000000000000000000000081565b6101207f000000000000000000000000000000000000000000000000000000000000000081565b6100b66101db366004610d0b565b60026020526000908152604090205460ff1681565b6102036101fe366004610d88565b6102f7565b005b610203610213366004610e02565b610457565b6000610224838361059d565b61023057506000610257565b600061023c8484610719565b80516020918201206000908152908190526040902054159150505b92915050565b6001602052600090815260409020805461027690610e9e565b80601f01602080910402602001604051908101604052809291908181526020018280546102a290610e9e565b80156102ef5780601f106102c4576101008083540402835291602001916102ef565b820191906000526020600020905b8154815290600101906020018083116102d257829003601f168201915b505050505081565b6001600160a01b037f00000000000000000000000000000000000000000000000000000000000000001663d505accf3330610338623d0900620f4240610eee565b888888886040518863ffffffff1660e01b815260040161035e9796959493929190610f01565b600060405180830381600087803b15801561037857600080fd5b505af115801561038c573d6000803e3d6000fd5b50506040516331a9108f60e11b8152600481018890523392506001600160a01b037f0000000000000000000000000000000000000000000000000000000000000000169150636352211e90602401602060405180830381865afa1580156103f7573d6000803e3d6000fd5b505050506040513d601f19601f8201168201806040525081019061041b9190610f42565b6001600160a01b03161461044257604051630e41dcbf60e21b815260040160405180910390fd5b61044e338888886108c6565b50505050505050565b6001600160a01b037f00000000000000000000000000000000000000000000000000000000000000001663d505accf3330610498623d0900620f4240610eee565b888888886040518863ffffffff1660e01b81526004016104be9796959493929190610f01565b600060405180830381600087803b1580156104d857600080fd5b505af11580156104ec573d6000803e3d6000fd5b50506040516379614c5f60e11b8152600092506001600160a01b037f000000000000000000000000000000000000000000000000000000000000000016915063f2c298be90610541908a908a90600401610f72565b6020604051808303816000875af1158015610560573d6000803e3d6000fd5b505050506040513d601f19601f820116820180604052508101906105849190610fa1565b9050610592338a8a846108c6565b505050505050505050565b60008083838080601f0160208091040260200160405190810160405280939291908181526020018383808284376000920191909152505082519293505060039091109050806105ed575060148151115b156105fc576000915050610257565b60005b815181101561070e57600082828151811061061c5761061c610fba565b01602001516001600160f81b03191690506000600360fc1b82108015906106515750603960f81b6001600160f81b0319831611155b806106835750604160f81b6001600160f81b03198316108015906106835750602d60f91b6001600160f81b0319831611155b806106b55750606160f81b6001600160f81b03198316108015906106b55750603d60f91b6001600160f81b0319831611155b806106cd5750605f60f81b6001600160f81b03198316145b806106e55750602d60f81b6001600160f81b03198316145b9050806106f9576000945050505050610257565b5050808061070690610fd0565b9150506105ff565b506001949350505050565b6060600083838080601f01602080910402602001604051908101604052809392919081815260200183838082843760009201829052508451949550939250505067ffffffffffffffff81111561077157610771610fe9565b6040519080825280601f01601f19166020018201604052801561079b576020820181803683370190505b50905060005b82518110156108bd57604160f81b8382815181106107c1576107c1610fba565b01602001516001600160f81b031916108015906108025750605a60f81b8382815181106107f0576107f0610fba565b01602001516001600160f81b03191611155b156108645782818151811061081957610819610fba565b602001015160f81c60f81b60f81c60206108339190610fff565b60f81b82828151811061084857610848610fba565b60200101906001600160f81b031916908160001a9053506108ab565b82818151811061087657610876610fba565b602001015160f81c60f81b82828151811061089357610893610fba565b60200101906001600160f81b031916908160001a9053505b806108b581610fd0565b9150506107a1565b50949350505050565b60008181526002602052604090205460ff16156108f657604051630ea075bf60e21b815260040160405180910390fd5b610900838361059d565b61091d5760405163430f13b360e01b815260040160405180910390fd5b60006109298484610719565b80516020918201206000818152918290526040909120549091501561096157604051639e4b268560e01b815260040160405180910390fd5b6040516323b872dd60e01b81526001600160a01b0386811660048301527f000000000000000000000000000000000000000000000000000000000000000081166024830152620f424060448301527f000000000000000000000000000000000000000000000000000000000000000016906323b872dd906064016020604051808303816000875af11580156109fa573d6000803e3d6000fd5b505050506040513d601f19601f82011682018060405250810190610a1e9190611018565b5060008181526020818152604080832085905584835260019091529020610a46848683611089565b5060008281526002602052604090819020805460ff191660011790555163095ea7b360e01b81526001600160a01b037f000000000000000000000000000000000000000000000000000000000000000081166004830152623d090060248301527f0000000000000000000000000000000000000000000000000000000000000000169063095ea7b3906044016020604051808303816000875af1158015610af1573d6000803e3d6000fd5b505050506040513d601f19601f82011682018060405250810190610b159190611018565b506040516323b872dd60e01b81526001600160a01b038681166004830152306024830152623d090060448301527f000000000000000000000000000000000000000000000000000000000000000016906323b872dd906064016020604051808303816000875af1158015610b8d573d6000803e3d6000fd5b505050506040513d601f19601f82011682018060405250810190610bb19190611018565b50604051631e14d30f60e01b815260048101839052623d090060248201527f00000000000000000000000000000000000000000000000000000000000000006001600160a01b031690631e14d30f90604401600060405180830381600087803b158015610c1d57600080fd5b505af1158015610c31573d6000803e3d6000fd5b5050505081856001600160a01b03167f6cbc388989dfabc5be9f5fcbe5da02f3df0c392b42fcda0a88fa4bc9d39c12c78686604051610c71929190610f72565b60405180910390a35050505050565b60008083601f840112610c9257600080fd5b50813567ffffffffffffffff811115610caa57600080fd5b602083019150836020828501011115610cc257600080fd5b9250929050565b60008060208385031215610cdc57600080fd5b823567ffffffffffffffff811115610cf357600080fd5b610cff85828601610c80565b90969095509350505050565b600060208284031215610d1d57600080fd5b5035919050565b600060208083528351808285015260005b81811015610d5157858101830151858201604001528201610d35565b506000604082860101526040601f19601f8301168501019250505092915050565b803560ff81168114610d8357600080fd5b919050565b600080600080600080600060c0888a031215610da357600080fd5b873567ffffffffffffffff811115610dba57600080fd5b610dc68a828b01610c80565b9098509650506020880135945060408801359350610de660608901610d72565b92506080880135915060a0880135905092959891949750929550565b60008060008060008060008060c0898b031215610e1e57600080fd5b883567ffffffffffffffff80821115610e3657600080fd5b610e428c838d01610c80565b909a50985060208b0135915080821115610e5b57600080fd5b50610e688b828c01610c80565b90975095505060408901359350610e8160608a01610d72565b92506080890135915060a089013590509295985092959890939650565b600181811c90821680610eb257607f821691505b602082108103610ed257634e487b7160e01b600052602260045260246000fd5b50919050565b634e487b7160e01b600052601160045260246000fd5b8082018082111561025757610257610ed8565b6001600160a01b0397881681529590961660208601526040850193909352606084019190915260ff16608083015260a082015260c081019190915260e00190565b600060208284031215610f5457600080fd5b81516001600160a01b0381168114610f6b57600080fd5b9392505050565b60208152816020820152818360408301376000818301604090810191909152601f909201601f19160101919050565b600060208284031215610fb357600080fd5b5051919050565b634e487b7160e01b600052603260045260246000fd5b600060018201610fe257610fe2610ed8565b5060010190565b634e487b7160e01b600052604160045260246000fd5b60ff818116838216019081111561025757610257610ed8565b60006020828403121561102a57600080fd5b81518015158114610f6b57600080fd5b601f82111561108457600081815260208120601f850160051c810160208610156110615750805b601f850160051c820191505b818110156110805782815560010161106d565b5050505b505050565b67ffffffffffffffff8311156110a1576110a1610fe9565b6110b5836110af8354610e9e565b8361103a565b6000601f8411600181146110e957600085156110d15750838201355b600019600387901b1c1916600186901b178355611143565b600083815260209020601f19861690835b8281101561111a57868501358255602094850194600190920191016110fa565b50868210156111375760001960f88860031b161c19848701351681555b505060018560011b0183555b505050505056fea264697066735822122021c5ece4f631c00ba863b2868046977033f29cd0ffe6a2a5c96346d4bd442e4064736f6c63430008140033",
  "linkReferences": {},
  "deployedLinkReferences": {}
}